:020000040800F2
:1000000008040020350100085702000853020008C8
:10001000550200087D0100081905000800000000D5
:10002000000000000000000000000000350400088F
:100030007F0100080000000059020008C104000808
:100040004F0100084F0100084F0100084F01000850
:100050004F0100084F0100084F0100084F01000840
:100060004F0100084F0100084F0100084F01000830
:100070004F0100084F0100084F0100084F01000820
:100080004F0100084F0100084F0100080000000068
:100090000000000000000000000000004F01000808
:1000A0004F0100084F0100084F0100084F010008F0
:1000B0004F0100084F010008000000004F01000838
:1000C0004F01000800000000000000004F01000880
:1000D000000000004F0100084F0100080000000070
:1000E0004F0100084F0100084F0100080000000008
:1000F0000000000000000000000000000000000000
:1001000000000000000000000000000000000000EF
:1001100000000000000000004F0100084F0100082F
:10012000DFF80CD000F018F8004800473905000847
:10013000080400200648804706480047FEE7FEE71F
:10014000FEE7FEE7FEE7FEE7FEE7FEE7FEE7FEE787
:10015000C504000821010008064C074D06E0E068D0
:1001600040F0010394E8070098471034AC42F6D3FE
:10017000FFF7DAFFA0050008C0050008FEE770479A
:1001800004490A6822F010020A600A6802430A6001
:100190007047000000200240034A116801F0380156
:1001A000014311607047000000200240F0B5CA789A
:1001B000002502F00F03D20601D58A7813430C788C
:1001C0004FF00F0E0122ECB1D0F800400F8802FA78
:1001D00005F63740B74211D14FEA850C0EFA0CF7FD
:1001E00024EA070703FA0CF43C43CF78282F02D007
:1001F000482F02D002E0466100E006616D1C082D28
:10020000E4D304600C88FF2C1ED944685FF000061C
:1002100006F1080702FA07F50F882F40AF420FD109
:100220004FEA860C0EFA0CF7BC4303FA0CF73C437A
:10023000CF78282F00D14561CF78482F00D10561B4
:10024000761C082EE4D34460F0BD41617047016123
:100250007047FEE7FEE7704770470000044A002938
:10026000916901D0014300E0814391617047000032
:100270000010024010B500F033F84FF480342046EF
:1002800000F07AF800F0C0F8012823D1002000F037
:1002900069F8002000F094F8A01100F087F802201F
:1002A000FFF77AFF1020FFF76BFF4FF4E0112046B5
:1002B00000F096F8012000F08DF8392000F032F8B7
:1002C0000028FAD0022000F095F800BF00F042F8B4
:1002D0000828FBD10121BDE810400420FFF7BEBF74
:1002E0000D48016841F00101016041680B4A11406D
:1002F000416001680A4A11400160016821F48021CF
:100300000160416821F4FE0141604FF41F018160EA
:100310000021C16270470000001002400000FFF899
:10032000FFFFF6FE0246002053090949012B0BD0BE
:10033000022B0BD0D1F8241002F01F0201239340AE
:100340000B4200D0012070470968F5E7096AF3E71E
:10035000001002400248406800F00C0070470000A6
:1003600000100240034A516821F0F001014351603E
:1003700070470000001002400B490A6822F48032E6
:100380000A600A6822F480220A60B0F5803F07D034
:10039000B0F5802F03D1086840F4A02008607047B2
:1003A000086840F48030F9E700100240034A5168C1
:1003B00021F4E061014351607047000000100240E9
:1003C00003494A6822F4605242EAC000486070471C
:1003D00000100240014908667047000000004242D8
:1003E000034A5368084323F474131843506070475A
:1003F00000100240034A516821F00301014351609B
:10040000704700000010024018B500204FF4A064AF
:1004100000903120FFF786FF0099491C0091A1420E
:1004200001D00028F5D03120FFF77CFF002800D054
:10043000012018BD704700000CB500211F48019134
:100440000091026842F4803202604FF4A0630268B7
:1004500002F400320092019A521C0192009A12B9E1
:10046000019A9A42F3D10268920324D501210091A6
:10047000416841604168416041684160416821F4E0
:100480007C114160416841F498114160016841F07C
:100490008071016001688901FCD5416821F0030188
:1004A0004160416841F0020141604168C1F381014E
:1004B0000229FAD10CBD00910CBD000000100240D1
:1004C00070470000104810B5016841F0010101605B
:1004D00041680E4A1140416001680D4A11400160B7
:1004E000016821F480210160416821F4FE0141602E
:1004F0004FF41F0181600021C162FFF79DFF054994
:100500004FF00060086010BD001002400000FFF8CE
:10051000FFFFF6FE08ED00E0FEE702E008C8121F4C
:1005200008C1002AFAD170477047002001E001C1DC
:10053000121F002AFBD1704708B515480090FFF73D
:1005400099FE14484FF4C041134E0180032181707D
:100550001021C17001463046FFF728FE7414214671
:100560003046FFF774FE650029463046FFF76FFE00
:100570000098411E00910028FAD12146074C2046E0
:10058000FFF763FE29462046FFF75FFEFEE7000007
:1005900080841E0002000020000C01400008014081
:1005A000C005000800000020080000001A0500082F
:1005B000C805000808000020000400002A05000803
:0805C000030000000000000030
:0400000508000121CD
:00000001FF
